{
  "_format": "hh-sol-artifact-1",
  "contractName": "Autobet",
  "sourceName": "contracts/lottery.sol",
  "abi": [
    {
      "inputs": [
        {
          "internalType": "address",
          "name": "_tokenAddress",
          "type": "address"
        }
      ],
      "stateMutability": "nonpayable",
      "type": "constructor"
    },
    {
      "anonymous": false,
      "inputs": [
        {
          "indexed": true,
          "internalType": "uint256",
          "name": "lotteryId",
          "type": "uint256"
        },
        {
          "indexed": false,
          "internalType": "uint256",
          "name": "entryfee",
          "type": "uint256"
        },
        {
          "indexed": false,
          "internalType": "uint256",
          "name": "picknumbers",
          "type": "uint256"
        },
        {
          "indexed": false,
          "internalType": "uint256",
          "name": "totalPrize",
          "type": "uint256"
        },
        {
          "indexed": false,
          "internalType": "uint256",
          "name": "capacity",
          "type": "uint256"
        },
        {
          "indexed": true,
          "internalType": "address",
          "name": "owner",
          "type": "address"
        },
        {
          "indexed": false,
          "internalType": "uint256",
          "name": "startTime",
          "type": "uint256"
        },
        {
          "indexed": true,
          "internalType": "uint256",
          "name": "ownerid",
          "type": "uint256"
        }
      ],
      "name": "CreatedLottery",
      "type": "event"
    },
    {
      "anonymous": false,
      "inputs": [
        {
          "indexed": false,
          "internalType": "uint256[]",
          "name": "numbers",
          "type": "uint256[]"
        },
        {
          "indexed": true,
          "internalType": "uint256",
          "name": "lotteryId",
          "type": "uint256"
        },
        {
          "indexed": false,
          "internalType": "uint256",
          "name": "boughtOn",
          "type": "uint256"
        },
        {
          "indexed": true,
          "internalType": "address",
          "name": "useraddress",
          "type": "address"
        },
        {
          "indexed": false,
          "internalType": "uint256",
          "name": "drawOn",
          "type": "uint256"
        },
        {
          "indexed": false,
          "internalType": "uint256",
          "name": "paid",
          "type": "uint256"
        }
      ],
      "name": "LotteryBought",
      "type": "event"
    },
    {
      "anonymous": false,
      "inputs": [
        {
          "indexed": false,
          "internalType": "address",
          "name": "useraddressdata",
          "type": "address"
        },
        {
          "indexed": true,
          "internalType": "uint256",
          "name": "lotteryId",
          "type": "uint256"
        },
        {
          "indexed": false,
          "internalType": "uint256",
          "name": "drawOn",
          "type": "uint256"
        }
      ],
      "name": "LotteryResult",
      "type": "event"
    },
    {
      "anonymous": false,
      "inputs": [
        {
          "indexed": true,
          "internalType": "address",
          "name": "useraddressdata",
          "type": "address"
        },
        {
          "indexed": true,
          "internalType": "uint256",
          "name": "lotteryId",
          "type": "uint256"
        },
        {
          "indexed": false,
          "internalType": "uint256",
          "name": "selectedNum",
          "type": "uint256"
        },
        {
          "indexed": false,
          "internalType": "uint256",
          "name": "winnerNum",
          "type": "uint256"
        },
        {
          "indexed": false,
          "internalType": "uint256",
          "name": "date",
          "type": "uint256"
        }
      ],
      "name": "SpinLotteryResult",
      "type": "event"
    },
    {
      "anonymous": false,
      "inputs": [
        {
          "indexed": true,
          "internalType": "address",
          "name": "useraddressdata",
          "type": "address"
        },
        {
          "indexed": true,
          "internalType": "uint256",
          "name": "lotteryId",
          "type": "uint256"
        },
        {
          "indexed": false,
          "internalType": "uint256",
          "name": "amountwon",
          "type": "uint256"
        }
      ],
      "name": "WinnerPaid",
      "type": "event"
    },
    {
      "inputs": [
        {
          "internalType": "string",
          "name": "",
          "type": "string"
        }
      ],
      "name": "TicketsList",
      "outputs": [
        {
          "internalType": "bool",
          "name": "",
          "type": "bool"
        }
      ],
      "stateMutability": "view",
      "type": "function"
    },
    {
      "inputs": [
        {
          "internalType": "address",
          "name": "_owner",
          "type": "address"
        },
        {
          "internalType": "string",
          "name": "_name",
          "type": "string"
        },
        {
          "internalType": "uint256",
          "name": "_minPrize",
          "type": "uint256"
        },
        {
          "internalType": "uint256",
          "name": "_maxPrize",
          "type": "uint256"
        }
      ],
      "name": "addOrganisation",
      "outputs": [],
      "stateMutability": "payable",
      "type": "function"
    },
    {
      "inputs": [],
      "name": "admin",
      "outputs": [
        {
          "internalType": "address",
          "name": "",
          "type": "address"
        }
      ],
      "stateMutability": "view",
      "type": "function"
    },
    {
      "inputs": [
        {
          "internalType": "address",
          "name": "",
          "type": "address"
        }
      ],
      "name": "amountspend",
      "outputs": [
        {
          "internalType": "uint256",
          "name": "",
          "type": "uint256"
        }
      ],
      "stateMutability": "view",
      "type": "function"
    },
    {
      "inputs": [
        {
          "internalType": "address",
          "name": "",
          "type": "address"
        }
      ],
      "name": "amountwon",
      "outputs": [
        {
          "internalType": "uint256",
          "name": "",
          "type": "uint256"
        }
      ],
      "stateMutability": "view",
      "type": "function"
    },
    {
      "inputs": [],
      "name": "bregisterFee",
      "outputs": [
        {
          "internalType": "uint256",
          "name": "",
          "type": "uint256"
        }
      ],
      "stateMutability": "view",
      "type": "function"
    },
    {
      "inputs": [
        {
          "internalType": "uint256[]",
          "name": "numbers",
          "type": "uint256[]"
        },
        {
          "internalType": "uint256",
          "name": "lotteryid",
          "type": "uint256"
        },
        {
          "internalType": "string",
          "name": "hash",
          "type": "string"
        }
      ],
      "name": "buyNormalLottery",
      "outputs": [],
      "stateMutability": "payable",
      "type": "function"
    },
    {
      "inputs": [
        {
          "internalType": "uint256",
          "name": "numbers",
          "type": "uint256"
        },
        {
          "internalType": "uint256",
          "name": "lotteryid",
          "type": "uint256"
        }
      ],
      "name": "buySpinnerLottery",
      "outputs": [],
      "stateMutability": "payable",
      "type": "function"
    },
    {
      "inputs": [],
      "name": "callresult",
      "outputs": [
        {
          "internalType": "bool",
          "name": "",
          "type": "bool"
        }
      ],
      "stateMutability": "view",
      "type": "function"
    },
    {
      "inputs": [
        {
          "internalType": "bytes",
          "name": "",
          "type": "bytes"
        }
      ],
      "name": "checkUpkeep",
      "outputs": [
        {
          "internalType": "bool",
          "name": "upkeepNeeded",
          "type": "bool"
        },
        {
          "internalType": "bytes",
          "name": "result",
          "type": "bytes"
        }
      ],
      "stateMutability": "view",
      "type": "function"
    },
    {
      "inputs": [
        {
          "internalType": "uint256",
          "name": "entryfee",
          "type": "uint256"
        },
        {
          "internalType": "uint256",
          "name": "picknumbers",
          "type": "uint256"
        },
        {
          "internalType": "uint256",
          "name": "totalPrize",
          "type": "uint256"
        },
        {
          "internalType": "uint256",
          "name": "startTime",
          "type": "uint256"
        },
        {
          "internalType": "uint256",
          "name": "endtime",
          "type": "uint256"
        },
        {
          "internalType": "uint256",
          "name": "drawtime",
          "type": "uint256"
        },
        {
          "internalType": "uint256",
          "name": "capacity",
          "type": "uint256"
        },
        {
          "internalType": "enum Autobet.LotteryType",
          "name": "lottype",
          "type": "uint8"
        }
      ],
      "name": "createLottery",
      "outputs": [],
      "stateMutability": "payable",
      "type": "function"
    },
    {
      "inputs": [
        {
          "internalType": "uint256",
          "name": "lotteryid",
          "type": "uint256"
        }
      ],
      "name": "getLotteryNumbers",
      "outputs": [
        {
          "internalType": "uint256[]",
          "name": "tickets",
          "type": "uint256[]"
        },
        {
          "internalType": "address[]",
          "name": "useraddress",
          "type": "address[]"
        }
      ],
      "stateMutability": "view",
      "type": "function"
    },
    {
      "inputs": [
        {
          "internalType": "address",
          "name": "useraddress",
          "type": "address"
        }
      ],
      "name": "getOrglotteries",
      "outputs": [
        {
          "internalType": "uint256[]",
          "name": "lotterids",
          "type": "uint256[]"
        }
      ],
      "stateMutability": "view",
      "type": "function"
    },
    {
      "inputs": [
        {
          "internalType": "address",
          "name": "useraddress",
          "type": "address"
        }
      ],
      "name": "getUserlotteries",
      "outputs": [
        {
          "internalType": "uint256[]",
          "name": "lotteryids",
          "type": "uint256[]"
        }
      ],
      "stateMutability": "view",
      "type": "function"
    },
    {
      "inputs": [
        {
          "internalType": "uint256",
          "name": "",
          "type": "uint256"
        }
      ],
      "name": "lottery",
      "outputs": [
        {
          "internalType": "uint256",
          "name": "lotteryId",
          "type": "uint256"
        },
        {
          "internalType": "uint256",
          "name": "pickNumbers",
          "type": "uint256"
        },
        {
          "internalType": "uint256",
          "name": "startTime",
          "type": "uint256"
        },
        {
          "internalType": "uint256",
          "name": "endTime",
          "type": "uint256"
        },
        {
          "internalType": "uint256",
          "name": "capacity",
          "type": "uint256"
        },
        {
          "internalType": "uint256",
          "name": "drawTime",
          "type": "uint256"
        },
        {
          "internalType": "uint256",
          "name": "entryFee",
          "type": "uint256"
        },
        {
          "internalType": "uint256",
          "name": "totalPrize",
          "type": "uint256"
        },
        {
          "internalType": "address",
          "name": "lotteryWinner",
          "type": "address"
        },
        {
          "internalType": "address",
          "name": "ownerAddress",
          "type": "address"
        },
        {
          "internalType": "enum Autobet.LotteryState",
          "name": "status",
          "type": "uint8"
        },
        {
          "internalType": "enum Autobet.LotteryType",
          "name": "lotteryType",
          "type": "uint8"
        }
      ],
      "stateMutability": "view",
      "type": "function"
    },
    {
      "inputs": [],
      "name": "lotteryCreateFee",
      "outputs": [
        {
          "internalType": "uint256",
          "name": "",
          "type": "uint256"
        }
      ],
      "stateMutability": "view",
      "type": "function"
    },
    {
      "inputs": [],
      "name": "lotteryId",
      "outputs": [
        {
          "internalType": "uint256",
          "name": "",
          "type": "uint256"
        }
      ],
      "stateMutability": "view",
      "type": "function"
    },
    {
      "inputs": [
        {
          "internalType": "uint256",
          "name": "",
          "type": "uint256"
        }
      ],
      "name": "lotterySales",
      "outputs": [
        {
          "internalType": "uint256",
          "name": "",
          "type": "uint256"
        }
      ],
      "stateMutability": "view",
      "type": "function"
    },
    {
      "inputs": [
        {
          "internalType": "uint256",
          "name": "",
          "type": "uint256"
        },
        {
          "internalType": "address",
          "name": "",
          "type": "address"
        }
      ],
      "name": "lotteryTickets",
      "outputs": [
        {
          "internalType": "uint256",
          "name": "",
          "type": "uint256"
        }
      ],
      "stateMutability": "view",
      "type": "function"
    },
    {
      "inputs": [
        {
          "internalType": "address",
          "name": "",
          "type": "address"
        }
      ],
      "name": "organisationbyaddr",
      "outputs": [
        {
          "internalType": "bool",
          "name": "active",
          "type": "bool"
        },
        {
          "internalType": "address",
          "name": "userAddress",
          "type": "address"
        },
        {
          "internalType": "string",
          "name": "name",
          "type": "string"
        },
        {
          "internalType": "uint256",
          "name": "id",
          "type": "uint256"
        },
        {
          "internalType": "uint256",
          "name": "amountEarned",
          "type": "uint256"
        },
        {
          "internalType": "uint256",
          "name": "commissionEarned",
          "type": "uint256"
        },
        {
          "internalType": "uint256",
          "name": "maxPrize",
          "type": "uint256"
        },
        {
          "internalType": "uint256",
          "name": "minPrize",
          "type": "uint256"
        }
      ],
      "stateMutability": "view",
      "type": "function"
    },
    {
      "inputs": [
        {
          "internalType": "uint256",
          "name": "",
          "type": "uint256"
        }
      ],
      "name": "organisationbyid",
      "outputs": [
        {
          "internalType": "bool",
          "name": "active",
          "type": "bool"
        },
        {
          "internalType": "address",
          "name": "userAddress",
          "type": "address"
        },
        {
          "internalType": "string",
          "name": "name",
          "type": "string"
        },
        {
          "internalType": "uint256",
          "name": "id",
          "type": "uint256"
        },
        {
          "internalType": "uint256",
          "name": "amountEarned",
          "type": "uint256"
        },
        {
          "internalType": "uint256",
          "name": "commissionEarned",
          "type": "uint256"
        },
        {
          "internalType": "uint256",
          "name": "maxPrize",
          "type": "uint256"
        },
        {
          "internalType": "uint256",
          "name": "minPrize",
          "type": "uint256"
        }
      ],
      "stateMutability": "view",
      "type": "function"
    },
    {
      "inputs": [],
      "name": "ownerId",
      "outputs": [
        {
          "internalType": "uint256",
          "name": "",
          "type": "uint256"
        }
      ],
      "stateMutability": "view",
      "type": "function"
    },
    {
      "inputs": [
        {
          "internalType": "address",
          "name": "useraddressdata",
          "type": "address"
        },
        {
          "internalType": "uint256",
          "name": "lotteryid",
          "type": "uint256"
        },
        {
          "internalType": "bytes32",
          "name": "requestId",
          "type": "bytes32"
        }
      ],
      "name": "paywinner",
      "outputs": [],
      "stateMutability": "payable",
      "type": "function"
    },
    {
      "inputs": [
        {
          "internalType": "bytes",
          "name": "",
          "type": "bytes"
        }
      ],
      "name": "performUpkeep",
      "outputs": [],
      "stateMutability": "nonpayable",
      "type": "function"
    },
    {
      "inputs": [
        {
          "internalType": "bytes32",
          "name": "",
          "type": "bytes32"
        }
      ],
      "name": "randomNumber",
      "outputs": [
        {
          "internalType": "uint256",
          "name": "",
          "type": "uint256"
        }
      ],
      "stateMutability": "view",
      "type": "function"
    },
    {
      "inputs": [
        {
          "internalType": "bytes32",
          "name": "requestId",
          "type": "bytes32"
        },
        {
          "internalType": "uint256",
          "name": "randomness",
          "type": "uint256"
        }
      ],
      "name": "rawFulfillRandomness",
      "outputs": [],
      "stateMutability": "nonpayable",
      "type": "function"
    },
    {
      "inputs": [],
      "name": "redeemTokens",
      "outputs": [],
      "stateMutability": "nonpayable",
      "type": "function"
    },
    {
      "inputs": [
        {
          "internalType": "bytes32",
          "name": "",
          "type": "bytes32"
        }
      ],
      "name": "requestIds",
      "outputs": [
        {
          "internalType": "uint256",
          "name": "",
          "type": "uint256"
        }
      ],
      "stateMutability": "view",
      "type": "function"
    },
    {
      "inputs": [
        {
          "internalType": "bool",
          "name": "_callresult",
          "type": "bool"
        }
      ],
      "name": "setCallresult",
      "outputs": [],
      "stateMutability": "nonpayable",
      "type": "function"
    },
    {
      "inputs": [
        {
          "internalType": "address",
          "name": "_tokenAddress",
          "type": "address"
        }
      ],
      "name": "setTokenAddress",
      "outputs": [],
      "stateMutability": "nonpayable",
      "type": "function"
    },
    {
      "inputs": [
        {
          "internalType": "bytes32",
          "name": "",
          "type": "bytes32"
        }
      ],
      "name": "spinBuyer",
      "outputs": [
        {
          "internalType": "address",
          "name": "",
          "type": "address"
        }
      ],
      "stateMutability": "view",
      "type": "function"
    },
    {
      "inputs": [
        {
          "internalType": "bytes32",
          "name": "",
          "type": "bytes32"
        }
      ],
      "name": "spinNumbers",
      "outputs": [
        {
          "internalType": "uint256",
          "name": "",
          "type": "uint256"
        }
      ],
      "stateMutability": "view",
      "type": "function"
    },
    {
      "inputs": [],
      "name": "tokenAddress",
      "outputs": [
        {
          "internalType": "address",
          "name": "",
          "type": "address"
        }
      ],
      "stateMutability": "view",
      "type": "function"
    },
    {
      "inputs": [],
      "name": "tokenEarnPercent",
      "outputs": [
        {
          "internalType": "uint256",
          "name": "",
          "type": "uint256"
        }
      ],
      "stateMutability": "view",
      "type": "function"
    },
    {
      "inputs": [
        {
          "internalType": "address",
          "name": "",
          "type": "address"
        }
      ],
      "name": "tokenearned",
      "outputs": [
        {
          "internalType": "uint256",
          "name": "",
          "type": "uint256"
        }
      ],
      "stateMutability": "view",
      "type": "function"
    },
    {
      "inputs": [
        {
          "internalType": "address",
          "name": "",
          "type": "address"
        }
      ],
      "name": "tokenredeemed",
      "outputs": [
        {
          "internalType": "uint256",
          "name": "",
          "type": "uint256"
        }
      ],
      "stateMutability": "view",
      "type": "function"
    },
    {
      "inputs": [
        {
          "internalType": "address",
          "name": "newAdmin",
          "type": "address"
        }
      ],
      "name": "transferAdmin",
      "outputs": [],
      "stateMutability": "nonpayable",
      "type": "function"
    },
    {
      "inputs": [],
      "name": "transferFeePerc",
      "outputs": [
        {
          "internalType": "uint256",
          "name": "",
          "type": "uint256"
        }
      ],
      "stateMutability": "view",
      "type": "function"
    },
    {
      "inputs": [
        {
          "internalType": "uint256",
          "name": "amount",
          "type": "uint256"
        },
        {
          "internalType": "address",
          "name": "to",
          "type": "address"
        },
        {
          "internalType": "address",
          "name": "tokenAdd",
          "type": "address"
        }
      ],
      "name": "transferToken",
      "outputs": [],
      "stateMutability": "nonpayable",
      "type": "function"
    },
    {
      "inputs": [
        {
          "internalType": "uint256",
          "name": "_lotteryCreateFee",
          "type": "uint256"
        },
        {
          "internalType": "uint256",
          "name": "_transferFeePerc",
          "type": "uint256"
        },
        {
          "internalType": "uint256",
          "name": "_tokenEarnPercent",
          "type": "uint256"
        }
      ],
      "name": "updateFee",
      "outputs": [],
      "stateMutability": "nonpayable",
      "type": "function"
    },
    {
      "inputs": [],
      "name": "withdrawETH",
      "outputs": [],
      "stateMutability": "payable",
      "type": "function"
    },
    {
      "inputs": [],
      "name": "withdrawcommission",
      "outputs": [],
      "stateMutability": "payable",
      "type": "function"
    }
  ],
  "bytecode": "0x60c060405260016003556001600455600a600655600a600755600a60085560056009553480156200002f57600080fd5b5060405162003c9238038062003c928339810160408190526200005291620003c7565b7f8c7382f9d8f56b33781fe506e897a4f1e2d1725500000000000000000000000060a09081527f326c977e6efc84e512bb9c30f76e30c160ed06fb00000000000000000000000060809081527f6e75b569a01ef56d18cab6a8e71e6600d6ce853834d4a5748b720d06f878b3a46001908155655af3107a4000600555600280546001600160a01b03191633908117909155600a80546001600160a01b03878116610100908102610100600160a81b0319938416179093556040805180850182528681526020818101878152835180850185526007815266105d5d1bd8995d60ca1b81840152838501908152600454606085015260009a84018b90529a83018a90526a084595161401484a00000060c084015260e083018a9052968952600c8152919097208751815496519093169094029115159092166001600160a81b03199094169390931792909217815593518051939493620001b893850192919091019062000321565b50606082015181600201556080820151816003015560a0820151816004015560c0820151816005015560e08201518160060155905050604051806101000160405280600115158152602001336001600160a01b0316815260200160405180604001604052806007815260200166105d5d1bd8995d60ca1b8152508152602001600454815260200160008152602001600081526020016a084595161401484a00000081526020016000815250600b6000600460008154809291906200027c9062000436565b909155508152602080820192909252604090810160002083518154858501516001600160a01b031661010002610100600160a81b0319921515929092166001600160a81b0319909116171781559083015180519192620002e59260018501929091019062000321565b50606082015160028201556080820151600382015560a0820151600482015560c0820151600582015560e0909101516006909101555062000460565b8280546200032f90620003f9565b90600052602060002090601f0160209004810192826200035357600085556200039e565b82601f106200036e57805160ff19168380011785556200039e565b828001600101855582156200039e579182015b828111156200039e57825182559160200191906001019062000381565b50620003ac929150620003b0565b5090565b5b80821115620003ac5760008155600101620003b1565b600060208284031215620003da57600080fd5b81516001600160a01b0381168114620003f257600080fd5b9392505050565b600181811c908216806200040e57607f821691505b602082108114156200043057634e487b7160e01b600052602260045260246000fd5b50919050565b60006000198214156200045957634e487b7160e01b600052601160045260246000fd5b5060010190565b60805160601c60a05160601c6137f1620004a1600039600081816116cd0152612a3c0152600081816125ef015281816127540152612a0d01526137f16000f3fe6080604052600436106102d15760003560e01c80638645f7a811610179578063bef7e5a2116100d6578063e086e5ec1161008a578063f851a44011610064578063f851a440146108ca578063f96ecc85146108ea578063fc061a4f146108fd57600080fd5b8063e086e5ec14610897578063e580f47b1461089f578063e9a9c50c146108b557600080fd5b8063d61752fe116100bb578063d61752fe14610841578063d7e2368f14610854578063e043e7bc1461086a57600080fd5b8063bef7e5a2146107f4578063c41ce92e1461082157600080fd5b80639d76ea581161012d578063b2dd29f311610112578063b2dd29f314610790578063b43f0b2b146107a6578063b75f16af146107e157600080fd5b80639d76ea58146106c4578063a57d1560146106e957600080fd5b806394985ddd1161015e57806394985ddd1461064d57806394d1283a1461066d578063961699951461069757600080fd5b80638645f7a81461060d57806388804e061461063a57600080fd5b80634585e33b116102325780636b65e844116101e657806375829def116101c057806375829def146105aa57806375e9340a146105ca57806380b0534a146105e057600080fd5b80636b65e8441461052e5780636bf8dc741461054e5780636e04ff0d1461057c57600080fd5b80634e7abe25116102175780634e7abe25146104e257806351d4568f146104f85780635f8e26a71461050057600080fd5b80634585e33b146104a25780634a2a1fb0146104c257600080fd5b80632751134a116102895780632f24d5dc1161026e5780632f24d5dc1461042e5780633295b5b01461044157806340b43c721461047557600080fd5b80632751134a146103b35780632786ab76146103e057600080fd5b80631c9c8e99116102ba5780631c9c8e991461032c57806326617ddb1461035957806326a4e8d21461039157600080fd5b8063019c08f5146102d657806316a1a468146102ff575b600080fd5b3480156102e257600080fd5b506102ec60045481565b6040519081526020015b60405180910390f35b34801561030b57600080fd5b506102ec61031a366004612fe3565b60116020526000908152604090205481565b34801561033857600080fd5b5061034c610347366004612fe3565b61091d565b6040516102f69190613449565b34801561036557600080fd5b506102ec61037436600461329c565b601960209081526000928352604080842090915290825290205481565b34801561039d57600080fd5b506103b16103ac366004612fe3565b610a0c565b005b3480156103bf57600080fd5b506102ec6103ce366004612fe3565b600e6020526000908152604090205481565b3480156103ec57600080fd5b506104166103fb3660046131a1565b6016602052600090815260409020546001600160a01b031681565b6040516001600160a01b0390911681526020016102f6565b6103b161043c3660046131ba565b610a8e565b34801561044d57600080fd5b5061046161045c3660046131a1565b610dce565b6040516102f69897969594939291906134eb565b34801561048157600080fd5b506102ec6104903660046131a1565b60146020526000908152604090205481565b3480156104ae57600080fd5b506103b16104bd3660046131dc565b610ea5565b3480156104ce57600080fd5b506103b16104dd3660046132c8565b610fcd565b3480156104ee57600080fd5b506102ec60065481565b6103b1611115565b34801561050c57600080fd5b5061052061051b3660046131a1565b6111be565b6040516102f692919061345c565b34801561053a57600080fd5b50610461610549366004612fe3565b6113a3565b34801561055a57600080fd5b506103b1610569366004613167565b600a805460ff1916911515919091179055565b34801561058857600080fd5b5061059c6105973660046131dc565b6113d9565b6040516102f6929190613542565b3480156105b657600080fd5b506103b16105c5366004612fe3565b61150e565b3480156105d657600080fd5b506102ec60075481565b3480156105ec57600080fd5b506102ec6105fb3660046131a1565b60156020526000908152604090205481565b34801561061957600080fd5b506102ec6106283660046131a1565b60136020526000908152604090205481565b6103b161064836600461305c565b61158b565b34801561065957600080fd5b506103b16106683660046131ba565b6116c2565b34801561067957600080fd5b50600a546106879060ff1681565b60405190151581526020016102f6565b3480156106a357600080fd5b506102ec6106b2366004612fe3565b60106020526000908152604090205481565b3480156106d057600080fd5b50600a546104169061010090046001600160a01b031681565b3480156106f557600080fd5b506107786107043660046131a1565b600d60205260009081526040902080546001820154600283015460038401546004850154600586015460068701546007880154600889015460098a0154600b909a0154989997989697959694959394929391926001600160a01b03918216929182169160ff600160a01b909104811691168c565b6040516102f69c9b9a99989796959493929190613570565b34801561079c57600080fd5b506102ec60085481565b3480156107b257600080fd5b506106876107c136600461324e565b8051602081830181018051601a8252928201919093012091525460ff1681565b6103b16107ef366004612ffe565b611748565b34801561080057600080fd5b506102ec61080f366004612fe3565b600f6020526000908152604090205481565b34801561082d57600080fd5b5061034c61083c366004612fe3565b611a7c565b6103b161084f36600461308f565b611b64565b34801561086057600080fd5b506102ec60095481565b34801561087657600080fd5b506102ec6108853660046131a1565b60126020526000908152604090205481565b6103b1611ed3565b3480156108ab57600080fd5b506102ec60035481565b3480156108c157600080fd5b506103b1611f4a565b3480156108d657600080fd5b50600254610416906001600160a01b031681565b6103b16108f8366004613330565b6120d3565b34801561090957600080fd5b506103b1610918366004613304565b612536565b6001600160a01b0381166000908152601760205260408120546060919067ffffffffffffffff81111561095257610952613797565b60405190808252806020026020018201604052801561097b578160200160208202803683370190505b50905060005b6001600160a01b038416600090815260176020526040902054811015610a05576001600160a01b03841660009081526017602052604090208054829081106109cb576109cb613781565b90600052602060002001548282815181106109e8576109e8613781565b6020908102919091010152806109fd816136fa565b915050610981565b5092915050565b6002546001600160a01b03163314610a595760405162461bcd60e51b815260206004820152600b60248201526a3737ba16b096b0b236b4b760a91b60448201526064015b60405180910390fd5b600a80546001600160a01b039092166101000274ffffffffffffffffffffffffffffffffffffffff0019909216919091179055565b6000818152600d6020526040902060068101543414610aef5760405162461bcd60e51b815260206004820152601160248201527f456e74727920466565206e6f74206d65740000000000000000000000000000006044820152606401610a50565b80600301544210610b425760405162461bcd60e51b815260206004820152601260248201527f54696d652070617373656420746f2062757900000000000000000000000000006044820152606401610a50565b60026009820154600160a01b900460ff166002811115610b6457610b6461376b565b1415610bb25760405162461bcd60e51b815260206004820152600b60248201527f526573756c7420646f6e650000000000000000000000000000000000000000006044820152606401610a50565b604080516001808252818301909252600091602080830190803683370190505090508381600081518110610be857610be8613781565b6020908102919091018101919091526000848152601982526040808220338352909252908120805460019290610c1f908490613631565b909155505060408051606081018252338152426020808301918252928201848152600a8601805460018082018355600092835291869020855160039092020180546001600160a01b0319166001600160a01b0390921691909117815592519083015551805192939192610c989260028501920190612e84565b5050336000908152600e602052604081208054349350909190610cbc908490613631565b909155505060098201546001600160a01b03166000908152600c602052604081206003018054349290610cf0908490613631565b909155505033600090815260176020908152604080832080546001810182559084528284200186905585835260129091528120805491610d2f836136fa565b9190505550610d5160646009548460060154610d4b919061365d565b9061258c565b3360009081526010602052604081208054909190610d70908490613631565b909155505060058201546006830154604051339286927feebeef70159cab2afd7f0275b057d4672073bc52648b266b673fdbb3a856103d92610db592879242926134bc565b60405180910390a3610dc88385336125d7565b50505050565b600b602052600090815260409020805460018201805460ff8316936101009093046001600160a01b0316929190610e04906136bf565b80601f0160208091040260200160405190810160405280929190818152602001828054610e30906136bf565b8015610e7d5780601f10610e5257610100808354040283529160200191610e7d565b820191906000526020600020905b815481529060010190602001808311610e6057829003601f168201915b5050505050908060020154908060030154908060040154908060050154908060060154905088565b600a5460ff1615610ef85760405162461bcd60e51b815260206004820152601260248201527f72657175697265642063616c6c207472756500000000000000000000000000006044820152606401610a50565b600a805460ff191660019081179091555b600354811015610fc85760016000828152600d60205260409020600b015460ff166001811115610f3b57610f3b61376b565b148015610f5857506000818152600d602052604090206005015442115b8015610f91575060026000828152600d6020526040902060090154600160a01b900460ff166002811115610f8e57610f8e61376b565b14155b15610fb6576000818152600d60205260409020600a015415610fb657610fb68161273c565b80610fc0816136fa565b915050610f09565b505050565b6040516370a0823160e01b81523060048201526001600160a01b038216906370a082319060240160206040518083038186803b15801561100c57600080fd5b505afa158015611020573d6000803e3d6000fd5b505050506040513d601f19601f820116820180604052508101906110449190613283565b8311156110935760405162461bcd60e51b815260206004820152600b60248201527f6c6f772062616c616e63650000000000000000000000000000000000000000006044820152606401610a50565b60405163a9059cbb60e01b81526001600160a01b0383811660048301526024820185905282169063a9059cbb90604401602060405180830381600087803b1580156110dd57600080fd5b505af11580156110f1573d6000803e3d6000fd5b505050506040513d601f19601f82011682018060405250810190610dc89190613184565b336000908152600c602052604081206003015460085490919061114090606490610d4b90859061286e565b9050600061114e8383612909565b604051909150339082156108fc029083906000818181858888f1935050505015801561117e573d6000803e3d6000fd5b50336000908152600c6020526040812060040180548392906111a1908490613631565b9091555050336000908152600c6020526040812060030155505050565b6000818152600d60205260408120600a81015460609283929167ffffffffffffffff8111156111ef576111ef613797565b604051908082528060200260200182016040528015611218578160200160208202803683370190505b506001830154600a840154919250600091611233919061365d565b67ffffffffffffffff81111561124b5761124b613797565b604051908082528060200260200182016040528015611274578160200160208202803683370190505b50905060008060005b600a8601548110156113945785600a01818154811061129e5761129e613781565b60009182526020909120600390910201546001600160a01b031685846112c3816136fa565b9550815181106112d5576112d5613781565b60200260200101906001600160a01b031690816001600160a01b03168152505060005b86600101548110156113815786600a01828154811061131957611319613781565b9060005260206000209060030201600201818154811061133b5761133b613781565b9060005260206000200154858480611352906136fa565b95508151811061136457611364613781565b602090810291909101015280611379816136fa565b9150506112f8565b508061138c816136fa565b91505061127d565b50919792965091945050505050565b600c602052600090815260409020805460018201805460ff8316936101009093046001600160a01b0316929190610e04906136bf565b600a5460009060609060ff16156114325760405162461bcd60e51b815260206004820152601660248201527f416e6f7468657220526573756c742072756e6e696e67000000000000000000006044820152606401610a50565b60015b6003548110156115055760016000828152600d60205260409020600b015460ff1660018111156114675761146761376b565b14801561148457506000818152600d602052604090206005015442115b80156114bd575060026000828152600d6020526040902060090154600160a01b900460ff1660028111156114ba576114ba61376b565b14155b156114f3576000818152600d60205260409020600a0154156114f357505060408051602081019091526000815260019150611507565b806114fd816136fa565b915050611435565b505b9250929050565b6002546001600160a01b031633146115565760405162461bcd60e51b815260206004820152600b60248201526a3737ba16b096b0b236b4b760a91b6044820152606401610a50565b6001600160a01b03811661156957600080fd5b600280546001600160a01b0319166001600160a01b0392909216919091179055565b60008181526013602052604090205482146115e85760405162461bcd60e51b815260206004820152601360248201527f4c6f7474657279204964206d69736d61746368000000000000000000000000006044820152606401610a50565b6000828152600d602052604090206001600160a01b038416156116b257600781015460085460009061162290606490610d4b90859061286e565b905060006116308383612909565b6040519091506001600160a01b0388169082156108fc029083906000818181858888f19350505050158015611669573d6000803e3d6000fd5b5085876001600160a01b03167f88f3705f0c4d3c5b1a1d29fe4fd3f87e889a5a0ce0a1e37989766b3248603fe9836040516116a691815260200190565b60405180910390a35050505b5050600a805460ff191690555050565b336001600160a01b037f0000000000000000000000000000000000000000000000000000000000000000161461173a5760405162461bcd60e51b815260206004820152601f60248201527f4f6e6c7920565246436f6f7264696e61746f722063616e2066756c66696c6c006044820152606401610a50565b611744828261294b565b5050565b6001600160a01b03841661175e5761175e613729565b60006117816002610d4b670de0b6b3a764000061177b8787612973565b9061286e565b90506000611798606460065484610d4b919061365d565b6001600160a01b038781166000908152600c602052604090205491925061010090910416156118095760405162461bcd60e51b815260206004820152601260248201527f416c7265616479207265676973746572656400000000000000000000000000006044820152606401610a50565b3481146118585760405162461bcd60e51b815260206004820152601960248201527f526567697374657220466565206e6f74206d61746368696e67000000000000006044820152606401610a50565b60408051610100808201835260018083526001600160a01b038a811660208086018281528688018d8152600454606089015260006080890181905260a0890181905260c089018d905260e089018e9052938452600c8352979092208651815493517fffffffffffffffffffffff00000000000000000000000000000000000000000090941690151574ffffffffffffffffffffffffffffffffffffffff00191617929093169094021781559351805193949361191c93928501929190910190612ecf565b50606082015181600201556080820151816003015560a0820151816004015560c0820151816005015560e08201518160060155905050604051806101000160405280600115158152602001876001600160a01b031681526020018681526020016004548152602001600081526020016000815260200185815260200185815250600b6000600460008154809291906119b3906136fa565b909155508152602080820192909252604090810160002083518154858501516001600160a01b03166101000274ffffffffffffffffffffffffffffffffffffffff0019921515929092167fffffffffffffffffffffff000000000000000000000000000000000000000000909116171781559083015180519192611a3f92600185019290910190612ecf565b50606082015160028201556080820151600382015560a0820151600482015560c0820151600582015560e090910151600690910155505050505050565b6001600160a01b0381166000908152601860205260408120546060919067ffffffffffffffff811115611ab157611ab1613797565b604051908082528060200260200182016040528015611ada578160200160208202803683370190505b50905060005b6001600160a01b038416600090815260186020526040902054811015610a05576001600160a01b0384166000908152601860205260409020805482908110611b2a57611b2a613781565b9060005260206000200154828281518110611b4757611b47613781565b602090810291909101015280611b5c816136fa565b915050611ae0565b6000828152600d6020526040902060068101543414611bc55760405162461bcd60e51b815260206004820152601160248201527f456e74727920466565206e6f74206d65740000000000000000000000000000006044820152606401610a50565b8060010154845114611c195760405162461bcd60e51b815260206004820152601360248201527f736c6f74732073697a65206e6f74206d656574000000000000000000000000006044820152606401610a50565b80600301544210611c6c5760405162461bcd60e51b815260206004820152601260248201527f54696d652070617373656420746f2062757900000000000000000000000000006044820152606401610a50565b601a82604051611c7c9190613405565b9081526040519081900360200190205460ff1615611cdc5760405162461bcd60e51b815260206004820152601660248201527f4e756d62657220416c726561647920636c61696d6564000000000000000000006044820152606401610a50565b6001601a83604051611cee9190613405565b9081526040805160209281900383019020805460ff191693151593909317909255600085815260198252828120338252909152908120805460019290611d35908490613631565b909155505060408051606081018252338152426020808301918252928201878152600a8501805460018082018355600092835291869020855160039092020180546001600160a01b0319166001600160a01b0390921691909117815592519083015551805192939192611dae9260028501920190612e84565b5050336000908152600e602052604081208054349350909190611dd2908490613631565b909155505060098101546001600160a01b03166000908152600c602052604081206003018054349290611e06908490613631565b909155505033600090815260176020908152604080832080546001810182559084528284200186905585835260129091528120805491611e45836136fa565b9190505550611e6160646009548360060154610d4b919061365d565b3360009081526010602052604081208054909190611e80908490613631565b909155505060058101546006820154604051339286927feebeef70159cab2afd7f0275b057d4672073bc52648b266b673fdbb3a856103d92611ec5928a9242926134bc565b60405180910390a350505050565b6002546001600160a01b03163314611f1b5760405162461bcd60e51b815260206004820152600b60248201526a3737ba16b096b0b236b4b760a91b6044820152606401610a50565b60405133904780156108fc02916000818181858888f19350505050158015611f47573d6000803e3d6000fd5b50565b600a546040516370a0823160e01b81523060048201526101009091046001600160a01b0316906370a082319060240160206040518083038186803b158015611f9157600080fd5b505afa158015611fa5573d6000803e3d6000fd5b505050506040513d601f19601f82011682018060405250810190611fc99190613283565b3360009081526010602052604090205411156120275760405162461bcd60e51b815260206004820152600b60248201527f6c6f772062616c616e63650000000000000000000000000000000000000000006044820152606401610a50565b600a54336000818152601060205260409081902054905163a9059cbb60e01b8152600481019290925260248201526101009091046001600160a01b03169063a9059cbb90604401602060405180830381600087803b15801561208857600080fd5b505af115801561209c573d6000803e3d6000fd5b505050506040513d601f19601f820116820180604052508101906120c09190613184565b5033600090815260106020526040812055565b336000908152600c602052604090205460ff166121325760405162461bcd60e51b815260206004820152601260248201527f4e6f742061206f7267616e69736174696f6e00000000000000000000000000006044820152606401610a50565b336000908152600c6020526040902060060154869061215990670de0b6b3a764000061286e565b11156121a75760405162461bcd60e51b815260206004820152601a60248201527f4e6f7420616c6c6f7765642077696e6e696e6720616d6f756e740000000000006044820152606401610a50565b336000908152600c602052604090206005015486906121ce90670de0b6b3a764000061286e565b101561221c5760405162461bcd60e51b815260206004820152601a60248201527f4e6f7420616c6c6f7765642077696e6e696e6720616d6f756e740000000000006044820152606401610a50565b6000861161226c5760405162461bcd60e51b815260206004820152600e60248201527f4c6f7720746f74616c50726963650000000000000000000000000000000000006044820152606401610a50565b3461228a61228360646007548a610d4b919061365d565b8890612973565b146122d75760405162461bcd60e51b815260206004820152601360248201527f416d6f756e74206e6f74206d61746368696e67000000000000000000000000006044820152606401610a50565b818711156123275760405162461bcd60e51b815260206004820152601060248201527f6361706163697479206973206c657373000000000000000000000000000000006044820152606401610a50565b428510156123775760405162461bcd60e51b815260206004820152601160248201527f53746172742074696d65207061737365640000000000000000000000000000006044820152606401610a50565b8385106123c65760405162461bcd60e51b815260206004820152601d60248201527f456e642074696d65206c657373207468616e2073746172742074696d650000006044820152606401610a50565b600380546000818152600d602052604080822092835560069092018b90558254815281812060019081018b9055835482528282206007018a90558354825282822060020189905583548252828220840188905583548252828220600401869055835482528282206009908101805460ff60a01b1916905584548352838320600501889055845483528383200180546001600160a01b031916331790559254815220600b018054839260ff199091169083818111156124865761248661376b565b021790555033600081815260186020908152604080832060038054825460018101845592865284862090920191909155848452600c83529281902060020154925481518d81529283018c90529082018a90526060820186905260808201899052919291907fe6e4222b2c2ddb82eb8817d7bd8ec6fc5eb5f915b4d7b36c260aa77ba04da7db9060a00160405180910390a460038054906000612527836136fa565b91905055505050505050505050565b6002546001600160a01b0316331461257e5760405162461bcd60e51b815260206004820152600b60248201526a3737ba16b096b0b236b4b760a91b6044820152606401610a50565b600792909255600855600955565b60006125ce83836040518060400160405280601a81526020017f536166654d6174683a206469766973696f6e206279207a65726f0000000000008152506129d2565b90505b92915050565b6005546040516370a0823160e01b81523060048201527f00000000000000000000000000000000000000000000000000000000000000006001600160a01b0316906370a082319060240160206040518083038186803b15801561263957600080fd5b505afa15801561264d573d6000803e3d6000fd5b505050506040513d601f19601f820116820180604052508101906126719190613283565b116126e45760405162461bcd60e51b815260206004820152602b60248201527f4e6f7420656e6f756768204c494e4b202d2066696c6c20636f6e74726163742060448201527f77697468206661756365740000000000000000000000000000000000000000006064820152608401610a50565b60006126f4600154600554612a09565b600090815260136020908152604080832096909655601581528582209490945560169093525091902080546001600160a01b0319166001600160a01b03909216919091179055565b6005546040516370a0823160e01b81523060048201527f00000000000000000000000000000000000000000000000000000000000000006001600160a01b0316906370a082319060240160206040518083038186803b15801561279e57600080fd5b505afa1580156127b2573d6000803e3d6000fd5b505050506040513d601f19601f820116820180604052508101906127d69190613283565b116128495760405162461bcd60e51b815260206004820152602b60248201527f4e6f7420656e6f756768204c494e4b202d2066696c6c20636f6e74726163742060448201527f77697468206661756365740000000000000000000000000000000000000000006064820152608401610a50565b6000612859600154600554612a09565b60009081526013602052604090209190915550565b60008261287d575060006125d1565b6000612889838561365d565b9050826128968583613649565b146125ce5760405162461bcd60e51b815260206004820152602160248201527f536166654d6174683a206d756c7469706c69636174696f6e206f766572666c6f60448201527f77000000000000000000000000000000000000000000000000000000000000006064820152608401610a50565b60006125ce83836040518060400160405280601e81526020017f536166654d6174683a207375627472616374696f6e206f766572666c6f770000815250612b93565b6000828152601460209081526040808320849055601390915290205461174490829084612bc4565b6000806129808385613631565b9050838110156125ce5760405162461bcd60e51b815260206004820152601b60248201527f536166654d6174683a206164646974696f6e206f766572666c6f7700000000006044820152606401610a50565b600081836129f35760405162461bcd60e51b8152600401610a50919061355d565b506000612a008486613649565b95945050505050565b60007f00000000000000000000000000000000000000000000000000000000000000006001600160a01b0316634000aea07f000000000000000000000000000000000000000000000000000000000000000084866000604051602001612a79929190918252602082015260400190565b6040516020818303038152906040526040518463ffffffff1660e01b8152600401612aa693929190613421565b602060405180830381600087803b158015612ac057600080fd5b505af1158015612ad4573d6000803e3d6000fd5b505050506040513d601f19601f82011682018060405250810190612af89190613184565b5060008381526020818152604080832054815180840188905280830185905230606082015260808082018390528351808303909101815260a090910190925281519183019190912086845292909152612b52906001613631565b60008581526020818152604091829020929092558051808301879052808201849052815180820383018152606090910190915280519101205b949350505050565b60008184841115612bb75760405162461bcd60e51b8152600401610a50919061355d565b506000612a00848661367c565b6000828152600d602052604090206001600b82015460ff166001811115612bed57612bed61376b565b1415612d2157600a810154612c03908590612e1b565b60098201805460ff60a01b191674020000000000000000000000000000000000000000179055600a820180549195509085908110612c4357612c43613781565b60009182526020909120600390910201546008820180546001600160a01b0319166001600160a01b03909216919091179055600a8101805484917fc95b83a8055606bd947ee12d6a33519292d859712d214efd6c587938a891e24b9187908110612caf57612caf613781565b600091825260209182902060039091020154604080516001600160a01b03909216825242928201929092520160405180910390a2612d1c81600a018581548110612cfb57612cfb613781565b60009182526020909120600390910201546001600160a01b0316848461158b565b610dc8565b6004810154612d31908590612e1b565b612d3c906001613631565b600083815260166020908152604080832054601583529281902054815190815291820184905242828201525192965085926001600160a01b03909216917f50e6d276e04bb48de52a4c1fcef42f86470ee30c5461da3e6edb4eba3a15c4689181900360600190a3600082815260156020526040902054841415610dc85760098101805460ff60a01b191674020000000000000000000000000000000000000000179055600082815260166020526040902080546008830180546001600160a01b0319166001600160a01b039283161790559054610dc89116848461158b565b60006125ce83836040518060400160405280601881526020017f536166654d6174683a206d6f64756c6f206279207a65726f000000000000000081525060008183612e795760405162461bcd60e51b8152600401610a50919061355d565b50612b8b8385613715565b828054828255906000526020600020908101928215612ebf579160200282015b82811115612ebf578251825591602001919060010190612ea4565b50612ecb929150612f42565b5090565b828054612edb906136bf565b90600052602060002090601f016020900481019282612efd5760008555612ebf565b82601f10612f1657805160ff1916838001178555612ebf565b82800160010185558215612ebf5791820182811115612ebf578251825591602001919060010190612ea4565b5b80821115612ecb5760008155600101612f43565b80356001600160a01b0381168114612f6e57600080fd5b919050565b600082601f830112612f8457600080fd5b813567ffffffffffffffff811115612f9e57612f9e613797565b612fb1601f8201601f1916602001613600565b818152846020838601011115612fc657600080fd5b816020850160208301376000918101602001919091529392505050565b600060208284031215612ff557600080fd5b6125ce82612f57565b6000806000806080858703121561301457600080fd5b61301d85612f57565b9350602085013567ffffffffffffffff81111561303957600080fd5b61304587828801612f73565b949794965050505060408301359260600135919050565b60008060006060848603121561307157600080fd5b61307a84612f57565b95602085013595506040909401359392505050565b6000806000606084860312156130a457600080fd5b833567ffffffffffffffff808211156130bc57600080fd5b818601915086601f8301126130d057600080fd5b81356020828211156130e4576130e4613797565b8160051b6130f3828201613600565b8381528281019086840183880185018d101561310e57600080fd5b600097505b85881015613131578035835260019790970196918401918401613113565b5098505050870135945050604086013591508082111561315057600080fd5b5061315d86828701612f73565b9150509250925092565b60006020828403121561317957600080fd5b81356125ce816137ad565b60006020828403121561319657600080fd5b81516125ce816137ad565b6000602082840312156131b357600080fd5b5035919050565b600080604083850312156131cd57600080fd5b50508035926020909101359150565b600080602083850312156131ef57600080fd5b823567ffffffffffffffff8082111561320757600080fd5b818501915085601f83011261321b57600080fd5b81358181111561322a57600080fd5b86602082850101111561323c57600080fd5b60209290920196919550909350505050565b60006020828403121561326057600080fd5b813567ffffffffffffffff81111561327757600080fd5b612b8b84828501612f73565b60006020828403121561329557600080fd5b5051919050565b600080604083850312156132af57600080fd5b823591506132bf60208401612f57565b90509250929050565b6000806000606084860312156132dd57600080fd5b833592506132ed60208501612f57565b91506132fb60408501612f57565b90509250925092565b60008060006060848603121561331957600080fd5b505081359360208301359350604090920135919050565b600080600080600080600080610100898b03121561334d57600080fd5b883597506020890135965060408901359550606089013594506080890135935060a0890135925060c0890135915060e08901356002811061338d57600080fd5b809150509295985092959890939650565b600081518084526020808501945080840160005b838110156133ce578151875295820195908201906001016133b2565b509495945050505050565b600081518084526133f1816020860160208601613693565b601f01601f19169290920160200192915050565b60008251613417818460208701613693565b9190910192915050565b6001600160a01b0384168152826020820152606060408201526000612a0060608301846133d9565b6020815260006125ce602083018461339e565b60408152600061346f604083018561339e565b82810360208481019190915284518083528582019282019060005b818110156134af5784516001600160a01b03168352938301939183019160010161348a565b5090979650505050505050565b6080815260006134cf608083018761339e565b6020830195909552506040810192909252606090910152919050565b60006101008a151583526001600160a01b038a1660208401528060408401526135168184018a6133d9565b60608401989098525050608081019490945260a084019290925260c083015260e0909101529392505050565b8215158152604060208201526000612b8b60408301846133d9565b6020815260006125ce60208301846133d9565b6000610180820190508d82528c60208301528b60408301528a60608301528960808301528860a08301528760c08301528660e08301526001600160a01b0380871661010084015280861661012084015250600384106135d1576135d161376b565b83610140830152600283106135e8576135e861376b565b826101608301529d9c50505050505050505050505050565b604051601f8201601f1916810167ffffffffffffffff8111828210171561362957613629613797565b604052919050565b600082198211156136445761364461373f565b500190565b60008261365857613658613755565b500490565b60008160001904831182151516156136775761367761373f565b500290565b60008282101561368e5761368e61373f565b500390565b60005b838110156136ae578181015183820152602001613696565b83811115610dc85750506000910152565b600181811c908216806136d357607f821691505b602082108114156136f457634e487b7160e01b600052602260045260246000fd5b50919050565b600060001982141561370e5761370e61373f565b5060010190565b60008261372457613724613755565b500690565b634e487b7160e01b600052600160045260246000fd5b634e487b7160e01b600052601160045260246000fd5b634e487b7160e01b600052601260045260246000fd5b634e487b7160e01b600052602160045260246000fd5b634e487b7160e01b600052603260045260246000fd5b634e487b7160e01b600052604160045260246000fd5b8015158114611f4757600080fdfea2646970667358221220e53fbb24a2789bd1a650e9725d97e6fa5b7f0ffa2dfd1818dc831ebc79b94a4b64736f6c63430008070033",
  "linkReferences": {},
  "deployedLinkReferences": {}
}